:020000020000FC
:020000007BC0C3
:100004000C9430000C943C000C9448000C94510067
:020040003DC0C1
:100060001FB622E03D2D321B2B2D321B10F41FBE7C
:100070001895B3941FBE18951FB621E03B2D321B77
:100080002FEF321B19F0BA941FBE18951FBE18959A
:100090001FB621E02D0D19F0D3941FBE18951FBE79
:1000A00018951FB6DA9421E02B0D2D1910F41FBE00
:1000B0001895DB2C21E0D20E1FBE18951FB6A5D1D6
:1000C0002CECCFD12EEBCDD1D7D127FB93F926FB4A
:1000D00092F925FB91F924FB90F92227CDD122FB3F
:1000E00096F921FB95F920FB94F98FD12CECB9D12D
:1000F00024E4B7D11FBE18950FEF0DBF00E10EBF6E
:1001000081D10FEF02B945D000E001BB0FEC09BF70
:100110000FEF00936A0001E007BF08E000BF05E0B1
:1001200003BF48E2D42E49E1942F42E0B42E6DD1B2
:100130002CEC97D124E495D17894DEC330900080E4
:1001400037FCFCCF03D000930080089500D000005E
:1001500008952D3069F12A30A9F10091008007FD42
:10016000FCCFF4DF209300C0089501E0E7CF02E068
:10017000E5CF00E1E3CF04E1E1CF08E1DFCF0CE11F
:10018000DDCF0DE0DBCF0CE0D9CF0EE0D7CF0CE018
:10019000D5CF05B7006C05BF01E0D0DF06E0CEDFAC
:1001A0000CE0CCDF08E3CADF0895022F0068C6CF59
:1001B0000091008007FDFCCF00740068C7DF00934A
:1001C000008008952F9320E4F0DF2F910895FF9190
:1001D000EF91EE0FFF1FAF93BF93C89531960020AC
:1001E00021F04AF0002D17D0F8CF3196F695E7951B
:1001F000BF91AF91099400FA002DC895A02DA036AB
:1002000010F0B2E001C0BB273196043879F0053810
:1002100081F015C0E2CF2F93FF93EF93E42DF52DDE
:10022000202F0995EF91FF912F9108950C91F3DF05
:10023000D4CF0D91002309F4D0CFEDDFFACF5F9337
:100240004F933F932F939F938F937F936F932D9112
:100250003D914D915D9106FD06C005FD0FC004FD69
:1002600010C003FD19C06AE0702F76957770729503
:1002700080E0902F9295937093951AC062E094E07D
:1002800003C060E194E000C0702F7695777009F4A8
:1002900078E0729580E00CC06AE0C895802D3196B8
:1002A000C895702D3196902F95959370939500C0B9
:1002B000943081F0933051F0923021F0332716F4CE
:1002C00027FD3FEF442716F437FD4FEF552716F46F
:1002D00047FD5FEF09D06F917F918F919F912F9193
:1002E0003F914F915F9179CFCF92BF92AF929F9202
:1002F0008F92BB18AA249924882486F4E894552365
:100300006AF46894772309F07051509540953095C0
:1003100020950FEF201B300B400B500B882351F022
:100320005595479537952795B794A79497948794B3
:100330008A95B1F77F9372957F700EE20F9345D047
:100340000C2D30D00F93002720173007400750079F
:1003500029F07723A1F37A9591F707C0772329F045
:100360007A9519F000E257DFF9CF16F40DE253DF6A
:100370000F910E3211F04FDFFBCF7F917F7077230B
:1003800059F049DF282D392D4A2D5B2D11D00C2D28
:1003900009D041DF7A95D1F78F909F90AF90BF90B1
:1003A000CF9008950A3010F4005D0895095A089519
:1003B000CC2400E2889420FDC60EC794579547953B
:1003C000379527950A95B1F70895CC2400E2221FAE
:1003D000331F441F551FCC1CC61A08F4C60E0A95BD
:1003E000B1F7221F331F441F551F5095409530957C
:1003F000209508950A95000000000000000000000C
:10040000C9F70895C598BD980895BD9A00EFF2DF29
:10041000BD9803E2EFDF06B305FB0DECEBDF0895BB
:10042000BD9A0CE1E7DFBD9802E0E4DF06B305FB0F
:1004300001E0E0DF0895BD9A01E0DCDFBD980EE148
:10044000D9DF06B305FB01E0D5DF0895BD9A01E0D1
:10045000D1DFBD9807E0CEDF06B305FB07E1CADFB9
:1004600008953F9338E0279510F4E5DF01C0D8DF09
:100470003A95C9F73F9108953F9338E02795E6DF15
:1004800027F93A95D9F73F91089509E148E0279572
:1004900008F4302730FB379537F94A95C1F70895AE
:1004A0009924862E869408E008F4920E97948794F7
:1004B0000A95D1F70895AA189924862E869408E003
:1004C00010F4920EA31EA794979487940A95C1F7EF
:1004D0000895BB18AA24862E972E9694879400E13F
:1004E00010F4A20EB31EB794A794979487940A951C
:1004F000B9F70895BB18AA249924862E869408E09B
:1005000018F4920EA31EB41EB794A79497948794E0
:100510000A95B1F70895CC18BB24AA24862E972EED
:100520009694879400E118F4A20EB31EC41EC794DB
:10053000B794A794979487940A95A9F70895DD181E
:10054000CC24BB24862E972EA82EA694979487940D
:1005500008E118F4B20EC31ED41ED794C794B79402
:10056000A794979487940A95A1F70895CC18BB2473
:10057000AA249924862E869408E020F4920EA31EC5
:10058000B41EC51EC794B794A794979487940A95F0
:10059000A1F70895DD18CC24BB24AA24862E972E1B
:1005A0009694879400E120F4A20EB31EC41ED51EBB
:1005B000D794C794B794A794979487940A9599F77A
:1005C0000895EE18DD24CC24BB24862E972EA82E69
:1005D000A6949794879408E120F4B20EC31ED41E0B
:1005E000E51EE794D794C794B794A79497948794FB
:1005F0000A9591F70895FF18EE24DD24CC24862E69
:10060000972EA82EB92EB694A7949794879400E2BB
:1006100020F4C20ED31EE41EF51EF794E794D7947F
:10062000C794B794A794979487940A9589F70895E7
:1006300037DF27FD961A67FD921A08954ADF37FFC4
:1006400002C0A61AB70A77FF02C0A21AB30A089519
:1006500076DF47FF03C0B61AC70AD80A87FF03C070
:10066000B21AC30AD40A0895C6DF57FF04C0C61AD7
:10067000D70AE80AF90A97FF04C0C21AD30AE40AA3
:10068000F50A0895822ECC2408E0881CCC1CC61ADA
:1006900008F4C60E0A95C9F7881C80940895822E26
:1006A000932ECC2400E1881C991CCC1CC61A08F49B
:1006B000C60E0A95C1F7881C991C909480940895E1
:1006C000822E932EDD18CC2400E1881C991CCC1CB2
:1006D000DD1CC61AD70A10F4C60ED71E0A95A9F754
:1006E000881C991C909480940895822E932EA42E99
:1006F000CC2408E1881C991CAA1CCC1CC61A08F43E
:10070000C60E0A95B9F7881C991CAA1CA09490944F
:1007100080940895822E932EA42EDD18CC2408E117
:10072000881C991CAA1CCC1CDD1CC61AD70A10F404
:10073000C60ED71E0A95A1F7881C991CAA1CA09466
:10074000909480940895822E932EA42EEE18DD248A
:10075000CC2408E1881C991CAA1CCC1CDD1CEE1CB6
:10076000C61AD70AE80A18F4C60ED71EE81E0A955C
:1007700089F7881C991CAA1CA094909480940895D1
:10078000822E932EA42EB52ECC2400E2881C991C18
:10079000AA1CBB1CCC1CC61A08F4C60E0A95B1F7DD
:1007A000881C991CAA1CBB1CB094A09490948094A3
:1007B0000895822E932EA42EB52EDD18CC2400E2AF
:1007C000881C991CAA1CBB1CCC1CDD1CC61AD70A91
:1007D00010F4C60ED71E0A9599F7881C991CAA1CFE
:1007E000BB1CB094A094909480940895822E932E74
:1007F000A42EB52EEE18DD24CC2400E2881C991C12
:10080000AA1CBB1CCC1CDD1CEE1CC61AD70AE80AAD
:1008100018F4C60ED71EE81E0A9581F7881C991C8D
:10082000AA1CBB1CB094A094909480940895822E2E
:10083000932EA42EB52EFF18EE24DD24CC2400E246
:10084000881C991CAA1CBB1CCC1CDD1CEE1CFF1CAC
:10085000C61AD70AE80AF90A20F4C60ED71EE81EFF
:10086000F91E0A9569F7881C991CAA1CBB1CB09438
:10087000A0949094809408953F92342E382647FF98
:1008800007C04095309520950FEF201B300B400B93
:1008900087FF07C08095709560950FEF601B700B08
:1008A000800B51DF37FE07C0A094909480940FEF27
:1008B000801A900AA00A3F900895762F6627332762
:1008C000222371F0022F12D000000A95E1F71A9B43
:1008D00002C01A9801C01A9A621B730B98F7089508
:1008E00021E004D0621B730BE0F7089500C000C044
:1008F00000D000D0000008951FB6F8942B2D291BBE
:100900003AF42D2D291B30F01FBE789464D0F4CF1B
:1009100003D0F2CF31D0F0CF2ADC292F09EA402EC4
:1009200000E0502E54DC543DC01243200D002D2D0C
:100930006B2D09EA402E00E0502E49DC0A546D6907
:100940006E3DC01620546D61783DC01220202000FD
:1009500068EE73E01C9809E2302E09E63A94F1F74C
:100960003A940A95D9F71C9A61507040E9F71C989F
:100970001FBE7894C1CF0895FADB292F09EA402ED3
:1009800000E0502E24DC543DC01243200D002D2DDC
:100990006B2D09EA402E00E0502E19DC0A546D69D7
:1009A0006E3DC01620546D61783DC012202020009D
:1009B00060ED77E01C9809E2302E09E63A94F1F7F1
:1009C0003A940A95D9F71C9A61507040E9F71C983F
:1009D0001FBE789408951FB6F894692F2B2D621BC3
:1009E0008824992428EE33E066DD282D392D6D2DDD
:1009F0007B2D671B54DEE92C882DB9DB292F09EAF2
:100A0000402E00E0502EE3DB543DC01243200D0089
:100A10002D2D6B2D09EA402E00E0502ED8DB0A5414
:100A20006D696E3DC01620546D61783DC012202066
:100A30002000682F7E2D68517C4F1C9809E2302ED3
:100A400009E63A94F1F73A940A95D9F71C9A61505D
:100A50007040E9F71C981FBE789408952AEF64E16E
:040A60002CDF0895EA
:00000001FF
